:10000000002000105D010000DD010000E50100009E
:1000100000000000000000000000000000000000E0
:10002000000000000000000000000000ED010000E2
:10459000000000000000000000000000000000001B
:1045A000000000000000000000000000000000000B
:1045B00000000000000000000000000000000000FB
:1045C000000000000000000000000000FFF8FFF8FD
:1045D00038001C000E000700000000000000000072
:1045E00000000000000000000000000000000000CB
:1045F00000000000000000000000000000000000BB
:1046000000000000000000001FC03FE020700070AC
:104610001FF03FF07870707070F03FF01F70000076
:10462000000000000000000000007000700070003A
:104630007000700077C07FE078E07070707070700C
:104640007070707078E07FE077C0000000000000BC
:10465000000000000000000000000000000000005A
:104660000FC01FE0382070007000700070007000F4
:1046700038201FE00FC00000000000000000000014
:104680000000007000700070007000701F703FF03C
:1046900038F07070707070707070707038F03FF03B
:1046A0001F7000000000000000000000000000007B
:1046B00000000000000000000F803FE038E0707054
:1046C0007FF07FF07000700038101FF00FE00000E6
:1046D0000000000000000000000003F007F00700E9
:1046E000070007003FF03FF0070007000700070042
:1046F0000700070007000700070000000000000097
:1047000000000000000000000000000000000000A9
:104710000F703FF038F07070707070707070707063
:1047200038F03FF01F70007020F03FE01FC0000025
:1047300000007000700070007000700077807FC013
:1047400078E070E070E070E070E070E070E070E0E1
:1047500070E00000000000000000000007000700FB
:1047600007000700000000003F003F0007000700AF
:10477000070007000700070007007FF07FF0000038
:10478000000000000000000003800380038003801D
:10479000000000001F801F800380038003800380CF
:1047A00003800380038003800380038003803F0035
:1047B0003E0000000000700070007000700070008B
:1047C00071E073C077807F007E007F00738073C0CC
:1047D00071C070E070F000000000000000000000F8
:1047E00000007E007E000E000E000E000E000E0087
:1047F0000E000E000E000E000E000E000E0007E070
:1048000003E00000000000000000000000000000C5
:104810000000000000000000DDE0FFF0C630C63000
:10482000C630C630C630C630C630C630C6300000CE
:104830000000000000000000000000000000000078
:104840000000000077807FC078E070E070E070E0EA
:1048500070E070E070E070E070E0000000000000C8
:104860000000000000000000000000000000000048
:104870000F803FE038E07070707070707070707012
:1048800038E03FE00F800000000000000000000062
:1048900000000000000000000000000077C07FE082
:1048A00078E07070707070707070707078E07FE099
:1048B00077C0700070007000700000000000000001
:1048C00000000000000000001F703FF038F0707022
:1048D000707070707070707038F03FF01F70007002
:1048E0000070007000700000000000000000000078
:1048F000000000001DE01FF01E101C001C001C002A
:104900001C001C001C001C001C000000000000001B
:104910000000000000000000000000000000000097
:104920001F803FC0704070007F003FC007E000E084
:1049300040E07FC03F800000000000000000000059
:104940000000000000000E000E000E007FE07FE07F
:104950000E000E000E000E000E000E000E000FE006
:1049600007E0000000000000000000000000000060
:10497000000000000000000070E070E070E070E0F7
:1049800070E070E070E070E071E03FE01EE0000079
:104990000000000000000000000000000000000017
:1049A000000000007070707038E038E038E01DC022
:1049B0001DC01DC00F800F800F8000000000000090
:1049C00000000000000000000000000000000000E7
:1049D000E038E038E0386730673065307DF07DF0F2
:1049E0003DE038E038E0000000000000000000007A
:1049F00000000000000000000000000078F038E037
:104A00001DC00F800F8007000F801DC01DC038E043
:104A100078F000000000000000000000000000002E
:104A20000000000000000000707038E038E038E05E
:104A30001DC01DC00FC00F80078007800700070042
:104A40000E003E003C0000000000000000000000DE
:104A5000000000007FE07FE001E003C007800F005E
:104A60001E003C0078007FE07FE0000000000000B6
:104A700000000000000003E007E007000700070057
:104A80000700070007000F003E003E000F00070070
:104A9000070007000700070007E003E00000000030
:104AA00000000600060006000600060006000600DC
:104AB00006000600060006000600060006000600C6
:104AC00006000600060006000600060000003E0084
:104AD0003F000700070007000700070007000780E6
:104AE00003E003E007800700070007000700070056
:104AF0003F003E0000000000000000000000000039
:104B0000000000000000000000003E107FF041E0C7
:104B10000000000000000000000000000000000095
:104B200000000000D2240000FA240000222500002A
:104B30004A250000722500009A250000C2250000C9
:104B4000EA2500008C2A0000262C0000262C0000FC
:104B5000262C0000262C0000262C0000262C00000D
:104B6000262C0000B22A0000262C0000262C000073
:104B7000262C0000262C0000262C0000262C0000ED
:104B8000262C0000D82A0000262C0000262C00002D
:104B9000262C0000262C0000262C0000262C0000CD
:104BA000262C00000E2C0000262C0000262C0000D5
:104BB000262C0000262C0000262C0000262C0000AD
:104BC000262C0000102B0000262C0000262C0000B4
:104BD000262C0000262C0000262C0000262C00008D
:104BE000262C00005E2B0000262C0000262C000046
:104BF000262C0000262C0000262C0000262C00006D
:104C0000262C0000262C0000262C0000262C00005C
:104C1000262C0000262C0000262C0000262C00004C
:104C2000262C0000762B0000262C0000262C0000ED
:104C3000262C0000262C0000262C0000262C00002C
:104C4000262C00000E2C0000262C0000262C000034
:104C5000262C0000262C0000262C0000262C00000C
:104C6000262C0000A02B0000262C0000262C000083
:104C7000262C0000262C0000262C0000262C0000EC
:104C8000262C0000E02B0000663300006C3300008F
:104C900072330000783300007E330000843300005C
:104CA0008A33000090330000963300009C330000EC
:104CB000A2330000A8330000AE330000B43300007C
:084CC000BA330000C03300000C
:044CC800001BB70016
:040000030000015D9B
:00000001FF


