:102008000020001079210000F921000001220000C1
:1020180000000000000000000000000000000000B8
:10202800000000000000000000000000092200007D
:10203800000000000000000011220000192200002A
:10204800C53F000049400000CD400000514100005C
:10205800D541000059420000DD4200006143000004
:10206800E5430000414400000000000000000000BB
:102078000000000000000000514F00007D4A0000F1
:10208800212200002122000055560000755600004C
:10209800E94E000021220000212200002122000038
:1020A8002922000021220000212200002122000014
:1020B80000000000000000002122000000000000D5
:1020C800386D00008000001004000000386D00002A
:1020D8000040002000000000386D000000000010E3
:1020E8000000000084000010C41900000040002017
:1020F80000000000000000108000000080B588B0DB
:1021080000AFF860B9607A60BB68FB61FB68BB61CF
:1021180000237B610AE0FB691A1DFA61BA69111D87
:10212800B96112681A607B6904337B617A697B68DC
:102138009A42F0D3BD4608B080BDC04680B584B091
:1021480000AF786039607B68FB600023BB6007E004
:10215800FB681A1DFA6000221A60BB680433BB6072
:10216800BA683B689A42F3D3BD4604B080BDC04606
:1021780080B584B000AF1B4BFB6016E0FB681A1DEE
:10218800FA601B68BB60FB681A1DFA601B687B60FD
:10219800FB681A1DFA601B683B60B9687A683B687F
:1021A800081C111C1A1CFFF7A9FFFA680E4B9A426B
:1021B800E4D30FE0FB681A1DFA601B687B60FB68BC
:1021C8001A1DFA601B683B607A683B68101C191C72
:1021D800FFF7B4FFFA68054B9A42EBD302F00EFE04
:1021E800FEE7C046C8200000EC20000004210000E3
:1021F80080B500AFFEE7C04680B500AFFEE7C04639
:1022080080B500AFFEE7C04680B500AFFEE7C04628
:1022180080B500AFFEE7C04680B500AFFEE7C04618
:1022280080B582B000AF324B1B6B7B607A68FF23AE
:102238001B0213402BD02F4B1B685A1C2D4B1A60C6
:1022480000233B6016E07A68FF231B0213401B0A39
:102258007B603B680122111C99400B1C7A68134073
:1022680005D0234B3A6804329200D3587B603B6810
:1022780001333B603B68072BE5D91D4B1C4A1168AD
:102288001D4A0A401A601D4B01221A602DE07A6827
:1022980080235B02134027D000233B6018E03B6893
:1022A8000122111C99400B1C7A681A40FF23134025
:1022B8000BD00F4B3A6804329200D3589B099B0508
:1022C800990D0F4B3A689200D1503B6801333B603F
:1022D8003B68072BE3D9064B054A1168064A0A40B2
:1022E8001A60064B01221A60C046BD4602B080BD86
:1022F80000C0014088000010FFFFFFF884000010B4
:102308005801001090B585B000AF78601D4A1D498E
:102318008E239B00CB581021181C8843011C8E2348
:102328009B00D150174A17498023CB588021890137
:1023380019438023D1500023FB6007E0124BFA6851
:1023480092000021D150FB680133FB60FB68072B2A
:10235800F4D90E4C0E4B1A680A4B9B6F101C191CB3
:1023680003F08EFA031C181C796803F089FA031C21
:10237800013B1B02236000F059F8C046BD4605B07A
:1023880090BDC046008004405801001000C00140C4
:102398008000001090B585B000AF021CFB1D1A70BC
:1023A800FB1D1B78072B02D9FB1D00221A701C4B42
:1023B8001B4A1268FF218A431A60194B184A116890
:1023C800FA1D12780120041C9440221C0A43802123
:1023D80049040A431A60FB1D1B78124A9B189B008C
:1023E8001B68FB60FB68002B0CDAC0460C4B0C4AE0
:1023F80011680D4A0A401A60FA688023DB05134009
:1024080003D000E0E7E7002305E0FB689B099B0594
:102418009B0DBB60BB68181CBD4605B090BDC0468F
:1024280000C0014004700010FFFFFFF880B500AF46
:102438000D4B1A68E023DB04134005D00A4B0A4A07
:1024480011680A4A0A401A60074B074A12680321B2
:102458000A431A60044B044A1268802149020A435D
:102468001A60C046BD4680BD00C00140FFFFFFF8AE
:1024780080B500AF604B81221A635F4B81225A639B
:102488005D4B81229A635C4B00225A645A4B0022AE
:102498009A64594B0022DA64574A94230021D15098
:1024A800554AA0230021D150534AB0230021D150CE
:1024B800514AB4230021D1504F4AB8230021D150AA
:1024C8004D4AC4230021D1504B4ACC230021D1507E
:1024D800494ADC230021D150474A9C238021D1500E
:1024E800454B80221A64444A98230021D150002089
:1024F8001021012202F06CFA01200E21012202F0C3
:1025080067FA01200F21012202F062FA002011214E
:10251800012202F05DFA00201121002202F02EFAB9
:1025280000200E21002202F053FA0120152100227A
:1025380002F04EFA01201021002202F049FA01208F
:102548001F21002202F044FA01201421002202F087
:102558003FFA00201221012202F010FA0020122175
:10256800012202F035FA00200C21012202F006FABD
:1025780000200C21012202F02BFA00200D2100225C
:1025880002F0FCF900200D21012202F021FA0120BD
:102598000D21002202F0F2F901200D21012202F0A2
:1025A80017FA01201921002202F0E8F90120192167
:1025B800012202F00DFA01201621012202F0DEF9B3
:1025C80001201621012202F003FA01201B21012219
:1025D80002F0D4F901201B21012202F0F9F90020B0
:1025E8001321002202F0CAF900201321012202F06F
:1025F800EFF9BD4680BDC0460040044080B582B0BA
:1026080000AF021CBB1D1A8004E0BB1D1A88BB1D4D
:10261800013A1A80BB1D1B88002BF6D1BD4602B0BB
:1026280080BDC04680B582B000AF584B01221A6009
:10263800574B03221A60574BAA221A70554BFE2299
:102648005A70544B06229A70524BAB22DA70524B96
:10265800181C0021102203F0C3F902F099FB4F4B1C
:102668001B680C2BE1D14C4B1B78DBB21A1C0123E5
:102678001340DAD04A4B181C03F0C8F8444B052223
:102688001A60424B00221A60424BAA221A70414B30
:10269800FE225A703F4B00229A703E4B3D22DA7060
:1026A8003C4B3D221A7102F073FB3C4B1B680C2B10
:1026B800E4D1374B05221A60344B00221A60354B9F
:1026C800AA221A70334BFE225A70324B00229A709B
:1026D800304B4022DA702F4B40221A7102F058FB1F
:1026E8002E4B1B680C2BE4D1284B01221A60284B77
:1026F80003221A60274BAA221A70264BFE225A7010
:10270800244B06229A70234BAB22DA70224B181CFA
:102718000021102203F064F902F03AFB1F4B1B68FA
:102728000C2BE1D11C4B1B78DBB21A1C1023134075
:10273800DAD0FB1DF8221A7020E0144B10221A6020
:10274800134B02221A60134BAA221A70114BFA1D5E
:1027580012785A700F4BAB229A700F4B181C00213D
:10276800102203F03DF902F013FB0C4B1B680C2BF5
:10277800E3D1FB1D1A78FB1D01321A70FB1D1B7873
:10278800FB2BDAD9FB1D01221A70ADE728180010BF
:10279800301A0010301900102C18001028010010F1
:1027A80080841E0080B584B000AF78603B1C0C3379
:1027B80000221A800BE07B685A1C7A6000221A708B
:1027C8003B1C0C331A883B1C0C3301321A803B1C0F
:1027D8000C331A88AE23DB009A42ECD97B68013BA4
:1027E8007B603B1C083306221A803B1C0E330122F7
:1027F8001A80C5E0744B02221A60744B10221A60CA
:10280800734BAA221A703B1C0E331B88DAB2704B2A
:102818005A706F4BAB229A7002F0BAFA6D4B1B6874
:102828000C2BE7D13B1C0E331B88012B04D13B1C1E
:102838000B330E221A7096E03B1C0B3300221A70E1
:1028480091E03B1C0B331B783A1C0B32127862491F
:102858008A5CD2B2D243D1B25F4AD1543B1C08330E
:102868001B881A2B47D17B685A1C7A601A780F216B
:102878008A43D2B21A707B685A1C7A6000221A7096
:102888007B685A1C7A6000221A707B685A1C7A602E
:1028980000221A707B685A1C7A6000221A707B68C2
:1028A8005A1C7A6000221A707B685A1C7A600022CF
:1028B8001A707B685A1C7A6000221A707B685A1C4E
:1028C8007A6000221A707B685A1C7A6000221A709B
:1028D8007B685A1C7A6000221A707B685A1C7A60DE
:1028E80000221A707B685A1C7A6000221A703B1CFE
:1028F800083306221A807B685A1C7A601A78D1B28B
:102908003A1C0B3212783448825CD2B21209D2B225
:10291800D2B20A43D2B2D2B21A703B1C08331A8818
:102928003B1C083301321A803B1C0B331B782A4AA4
:10293800D35CDBB21B01DAB27B681A703B1C0E3326
:102948001B88762B08D13B1C0B331B78022B03D139
:102958003B1C0B3310221A703B1C0B331A783B1CA0
:102968000B3301321A703B1C0B331B780F2B00D82A
:1029780067E73B1C0E331A883B1C0E3301321A8062
:102988003B1C0E331B88762B00D833E77B68013B52
:102998007B603B1C0C3300221A800BE07B685A1CBE
:1029A8007A6000221A703B1C0C331A883B1C0C33CB
:1029B80001321A803B1C0C331A88084B9A42EDD915
:1029C800BD4604B080BDC046301A0010281800105B
:1029D80030190010280100102C18001042050000C2
:1029E80080B500AF1E4B02221A601E4B00221A60EF
:1029F8001D4B40221A701C4B00225A7002F0C8F975
:102A08001A4B1B680C2BEDD1154B03221A60154B82
:102A180000221A60144B40221A70134B30225A704D
:102A2800114B33229A7002F0B3F9104B1B680C2B30
:102A3800EAD10B4B03221A600A4B00221A600A4B98
:102A480040221A70084B39225A70074B1F229A707D
:102A580002F09EF9054B1B680C2BEAD1BD4680BDE0
:102A6800301A001028180010301900102801001022
:102A780080B582B000AFA023DA053C4BD358002BB9
:102A880000DA6CE07B1D00221A7064E0384B0022EB
:102A98001A60384B01221A60374B41221A70374BA3
:102AA80000221A7002F074F9354B1B680C2BEDD11B
:102AB800324B1B78DAB20F231340DAB22F4B1A705D
:102AC8002E4B1B78DBB2092B04D02C4B1B78DBB2C6
:102AD800082B03D1BB1D04221A702CE0274B1B784E
:102AE800DBB20C2B04D0254B1B78DBB2042B03D1B3
:102AF800BB1D03221A701EE0204B1B78DBB2062B8D
:102B080004D01E4B1B78DBB2022B03D1BB1D022263
:102B18001A7010E0194B1B78DBB2032B04D0174B4B
:102B28001B78DBB2012B03D1BB1D01221A7002E016
:102B3800BB1D00221A70BB1D1B78002B06D0FB1D85
:102B4800BA1D12781A707B1D00221A707B1D1A7824
:102B58007B1D01321A707B1D1B78022B96D9FB1D39
:102B68001B78181CBD4602B080BDC0460421000079
:102B7800301A001028180010301900102C180010F6
:102B88002801001080B500AF0C4B04221A600C4BD2
:102B980000221A600B4B30221A700A4B01225A701D
:102BA800084B00229A70074B0022DA7002F0F0F806
:102BB800054B1B680C2BE7D1BD4680BD301A0010B1
:102BC80028180010301900102801001080B500AF37
:102BD8001A4B02221A601A4B02221A60194B302231
:102BE8001A70184B05225A70164B31229A70164BE0
:102BF800FF221A70144BFF225A7002F0C9F8134BC7
:102C08001B680C2BE4D1104B1B78DBB21A1C1F235A
:102C180013409BB21B029BB21A1C0B4B5B78DBB2B6
:102C2800D218131C9B009B185B0000D50F331B1197
:102C38009BB21BB2181CBD4680BDC046301A00109E
:102C480028180010301900102C1800102801001046
:102C580080B582B000AF00237B6013E0A023DA05C3
:102C68008A239B0180214901D150A023DA058823BA
:102C78009B0180214901D150642002F0C7FD7B6887
:102C880001337B607A68064B9A42E7DDA023DA05B8
:102C98008A239B0180214901D150BD4602B080BDE5
:102CA800E703000080B582B000AFFB1D00221A7058
:102CB800A023DA058A239B0180218902D150A02311
:102CC800DA05BC4B8021C903D150A023DA05B94BE2
:102CD80080218904D150A023DA058A239B01802111
:102CE8008901D150A023DA0588239B018021C902DC
:102CF800D150A023DA058A239B0180210903D150F2
:102D0800AD4B181C02F082FDA023DA058A239B0133
:102D18008021C902D150A94B181C02F077FDA023CD
:102D2800DA0588239B0180218902D150A023DA0586
:102D380088239B0180210903D150A023DA05882329
:102D48009B0180218901D150A023DA059C4B802169
:102D58008904D150984B181C02F058FDA023DA05BD
:102D6800944B80218904D150934B181C02F04EFDDE
:102D7800A023DA05924B80218904D1508E4B181C70
:102D880002F044FDC046A023DA058E4BD2588023BA
:102D98005B021340F7D18C4B00221A7002200221EB
:102DA80000F050FD884B1B781A1C0F231340022B90
:102DB80001D00123F9E0844B02221A70824B402291
:102DC8005A700020022100F03DFD7F4B0F221A703F
:102DD8007D4B00225A700120022100F033FD7A4B0E
:102DE8005B78DBB25BB2002B01DB0223DDE0764BC4
:102DF8000B221A70744B02225A700020022100F034
:102E080021FD714B01221A706F4B00225A706E4BD4
:102E180000229A706C4B0022DA706B4B7F221A7179
:102E2800694BFF225A71684BFE229A71664B002249
:102E3800DA71654B00221A720020092100F002FDA8
:102E4800614B07221A70604BD1225A700020022170
:102E580000F0F8FC5C4B08221A705B4B02225A7097
:102E68000020022100F0EEFC574B09221A70564B45
:102E7800C2225A700020022100F0E4FC524B0422C6
:102E88001A70514B03225A700020022100F0DAFC1C
:102E98004D4B03221A704C4B01225A70002002211C
:102EA80000F0D0FC484B03221A70474B00225A709E
:102EB8000020022100F0C6FC002002F055FC002092
:102EC80002F0E4FB3C4B181C02F0A0FC002002F0CE
:102ED800F7FBFB1D1A78FB1D01321A703A4B0522CD
:102EE8001A70394B01225A700020022100F0AAFC06
:102EF800002002F039FC002002F0C8FB334B181CFC
:102F080002F084FC002002F0DBFB2F4B05221A7034
:102F18002D4B03225A700020022100F093FC002060
:102F280002F022FC002002F0B1FB294B181C02F031
:102F38006DFC002002F0C4FB234B05221A70224BC3
:102F48000F225A700020022100F07CFC002002F0C1
:102F58000BFC002002F09AFB1D4B181C02F056FCDB
:102F6800002002F0ADFB184B0F225A70164B0022BE
:102F78009A700120022100F065FC134B5B781A1C43
:102F88004023134006D1FB1D1B78032B01D90323D3
:102F98000BE09EE70C4B02221A700B4B40225A7032
:102FA8000020022100F04EFC0023181CBD4602B090
:102FB80080BDC0468422000088130000102700004E
:102FC8000422000004210000381A001080A9030020
:102FD800409C000080B582B000AF674B181C02F01F
:102FE80015FCA023DA058A239B0180218901D15091
:102FF800624B181C02F00AFCA023DA0588239B0107
:1030080080218901D1505E4B0F221A705C4B00223F
:103018005A700120022100F015FC594B5B781A1CEC
:103028004023134001D10123A2E0554B03221A701B
:10303800534B01225A700020022100F003FC504B30
:1030480002221A704E4B05225A700020022100F00D
:10305800F9FB4B4B05221A70494B0E225A7000207F
:10306800022100F0EFFB464B05221A70444B022266
:103078005A700020022100F0E5FB414B05221A702E
:103088003F4B00225A700020022100F0DBFB3C4B32
:1030980007221A703A4B0D225A700020022100F0C4
:1030A800D1FB374B04221A70354B83225A7000200B
:1030B800022100F0C7FB334B181C02F0A7FB304B72
:1030C80004221A702E4B00225A700020022100F0B0
:1030D800B9FB002001F06CFFA023DA058A239B01CD
:1030E80080210903D150254B181C02F08FFBA02327
:1030F800DA05254B80218904D150A023DA058A23DB
:103108009B0180218902D150A023DA0588239B01E5
:103118008021C902D150A023DA058A239B0180218E
:103128008901D150194B181C02F070FBFB1D0022BD
:103138001A7018E0A023DA05154B8021C903D15075
:10314800124B181C02F062FBA023DA050E4B8021FB
:10315800C903D1500D4B181C02F058FBFB1D1A78FF
:10316800FB1D01321A70FB1D1B78092BE2D90023C5
:10317800181CBD4602B080BDA8610000400D0300C8
:10318800381A0010C0D40100842200001027000063
:103198000422000080B584B000AF78607B68082006
:1031A80002211A1C012300F02DF83B1C0F330022CA
:1031B8001A7010E07B68181C022100F0B1F87B68D7
:1031C800181C032100F0ACF83B1C0F331A783B1C89
:1031D8000F3301321A703B1C0F331B78032BE9D9CC
:1031E8007B68082002211A1C002300F00BF87B687A
:1031F800082002211A1C042300F004F8BD4604B07C
:1032080080BDC04680B584B000AF3A601A1CFB1D73
:103218001870BB1D19707B1D1A703B1C0E33BA1D2C
:1032280012781A805FE03B1C0C333A1C0E3212886D
:103238001A803B1C0B33FA1D12781A703FE03B1CB6
:103248000C331B88B02B2CD87B1D1B78042B0CD07F
:103258003B1C0C331B88D9B23A687B1D1B78081CB1
:10326800111C1A1C00F084F81BE03A1C0B32BB1D21
:1032780012781B789A420AD83B1C0C331B88DAB2A6
:103288003B68101C191C042200F072F809E03B1C72
:103298000C331B88DAB23B68101C191C002200F0A2
:1032A80067F83B1C0C331A883B1C0C33013A1A8014
:1032B8003B1C0B331A783B1C0B33013A1A703B1C2E
:1032C8000B331B78002B04D03B1C0C331B88002BC2
:1032D800B5D1BB1D1B7899B23B1C0E333A1C0E327C
:1032E80012888A181A80FB1D1B789BB23A1C0E3272
:1032F80012889A4297D9FB1D1B789BB23A1C0E3252
:1033080012889A4208D93B1C0E331A88FB1D1B7879
:10331800D31AB02B00DC86E7BD4604B080BDC0469A
:1033280080B584B000AF78600A1CFB1C1A703B1C87
:103338000E3301221A8012E03B1C0E331B88D9B2CF
:103348007A68FB1C1B78081C111C1A1C00F010F86A
:103358003B1C0E331A883B1C0E3301321A803B1C6F
:103368000E331B88B02BE7D9BD4604B080BDC046DC
:1033780080B584B000AF3960FB1D011C1970BB1DFE
:103388001A703B1C0A333A1C0A3212881A80FB1D39
:103398001B78B02B00D94CE2A023DA058A239B01C5
:1033A80080210903D150C046A023DA05C94BD25861
:1033B80080235B021340F7D1C046C74BDA6802236B
:1033C8001340FAD0C44B70229A60C046C24BDA68E8
:1033D80004231340FAD0C04B9A683B1C0A331A8066
:1033E800C046A023DA05BB4BD25880235B021340AA
:1033F800F7D1C046B84BDA6802231340FAD0B64B6F
:103408000A229A60C046B44BDA6804231340FAD003
:10341800B14B9A683B1C0A331A80A023DA0588232B
:103428009B0180210903D1500F2002F0EFF9A0235E
:10343800DA058A239B0180210903D150C046A023C5
:10344800DA05A44BD25880235B021340F7D1C0465B
:10345800A14BDA6802231340FAD09F4B72229A607C
:10346800C0469D4BDA6804231340FAD09A4B9A68F9
:103478003B1C0A331A80BB1D1B78042B1DD8C04681
:10348800A023DA05934BD25880235B021340F7D16F
:10349800C046914BDA6802231340FAD08E4B0022C3
:1034A8009A60C0468C4BDA6804231340FAD08A4BE2
:1034B8009A683B1C0A331A803EE0BB1D1B78052B1B
:1034C8001DD1C046A023DA05824BD25880235B0267
:1034D8001340F7D1C046804BDA6802231340FAD074
:1034E8007D4BFF229A60C0467B4BDA680423134069
:1034F800FAD0794B9A683B1C0A331A801CE0C04604
:10350800A023DA05734BD25880235B021340F7D10E
:10351800C046714BDA6802231340FAD06E4BAA22D8
:103528009A60C0466C4BDA6804231340FAD06A4BA1
:103538009A683B1C0A331A803B1C0E3300221A80FF
:103548004EE13B1C0C3300221A703B1C0E331B88C7
:10355800202B05D93B1C0E331B884C2B00D8D2E0FE
:103568003B1C0E331B88202B11D8FB1D1A78131C0B
:103578005B019B181A1C3B1C0E331B88D31A013B9A
:103588003A68D2183B1C0D3312781A7011E0FB1DF3
:103598001B785A1E131C5B019B181A1C3B1C0E330C
:1035A8001B88D3184D3B3A68D2183B1C0D33127850
:1035B8001A703B1C0E331B88202B13D83B1C0D3371
:1035C8001A780F231340454AD35C1B01D9B23B1C20
:1035D8000D331B781B09DBB2404AD25C3B1C0D3310
:1035E8008A181A70BB1D1B78012B69D8BB1D1B7864
:1035F800012B06D13B1C0D333A1C0D321278D243F5
:103608001A703B1C0D331A780123134008D03B1C59
:103618000C333A1C0C32127803210A431A7007E063
:103628003B1C0C333A1C0C32127802210A431A70E4
:103638003B1C0D331A780423134008D03B1C0C3371
:103648003A1C0C3212780C210A431A7007E03B1C12
:103658000C333A1C0C32127808210A431A703B1CAE
:103668000D331A781023134008D03B1C0C333A1C36
:103678000C32127830210A431A7007E03B1C0C33D5
:103688003A1C0C32127820210A431A703B1C0D3365
:103698001A784023134009D03B1C0C333A1C0C32D7
:1036A8001278402149420A431A702BE03B1C0C3324
:1036B8003A1C0C321278802149420A431A7047E0BA
:1036C800BB1D1B78022B0BD13B1C0C33FF221A703D
:1036D80018E0C0460421000000000440F45A00002D
:1036E800BB1D1B78032B04D13B1C0C33AA221A7078
:1036F80008E0BB1D1B78042B04D13B1C0C330022B3
:103708001A7025E024E03B1C0E331B884C2B1FD875
:103718003B1C0E331B884C22D21AFB1D1B78013B25
:103728009B109A4210D1FB1D1B785A1E3B1C0E336E
:103738001B884C21CB1A9B00D31A5B0003229A40AA
:103748003B1C0C331A7003E03B1C0C3300221A702C
:10375800FB1D1B78002B1DD1C046A023DA05364B74
:10376800D25880235B021340F7D1C046334BDA6846
:1037780002231340FAD0314B00229A60C0462F4BE7
:10378800DA6804231340FAD02C4B9A683B1C0A339E
:103798001A801EE0C046A023DA05274BD2588023A2
:1037A8005B021340F7D1C046244BDA68022313406A
:1037B800FAD0224B3A1C0C3212789A60C0461F4B42
:1037C800DA6804231340FAD01C4B9A683B1C0A336E
:1037D8001A803B1C0E331A883B1C0E3301321A80A8
:1037E8003B1C0E331B886D2B00D8AAE6C046A023CD
:1037F800DA05114BD25880235B021340F7D1C0463B
:103808000E4BDA6802231340FAD0A023DA05882386
:103818009B0180210903D1500F2001F0F7FF084BCD
:1038280002221A70064B07225A700020022100F06B
:1038380009F8BD4604B080BD042100000000044022
:10384800381A001080B584B000AF021C3960FB1D27
:103858001A703B1C0B3300221A70FB1D1B78022BBD
:1038680055D0A023DA058A239B0180210903D15072
:10387800C046A023DA05964BD25880235B0213403A
:10388800F7D1C046934BDA6802231340FAD0914B24
:1038980070229A60C0468F4BDA6804231340FAD02E
:1038A8008C4B9B68DAB28C4B1A70C046A023DA05A1
:1038B800874BD25880235B021340F7D1C046854B13
:1038C800DA6802231340FAD0824B3A1C0B32127882
:1038D80082498A5C9A60C0467E4BDA6804231340AA
:1038E800FAD07C4B9B68DAB27B4B1A703B1C0B33CB
:1038F8001A783B1C0B3301321A70A023DA0588238F
:103908009B0180210903D1500F2001F07FFFA023E4
:10391800DA058A239B0180210903D150FB1D1B78FE
:10392800002B1DD1C046A023DA05694BD25880234D
:103938005B021340F7D1C046664BDA680223134096
:10394800FAD0644B72229A60C046624BDA6804234C
:103958001340FAD05F4B9B68DAB25F4B1A7042E0B3
:10396800FB1D1B78012B1DD1C046A023DA05584B3F
:10397800D25880235B021340F7D1C046554BDA6812
:1039880002231340FAD0534B73229A60C046514B1E
:10399800DA6804231340FAD04E4B9B68DAB24E4BD8
:1039A8001A7020E0FB1D1B78022B1CD1C046A023F7
:1039B800DA05474BD25880235B021340F7D1C04643
:1039C800444BDA6802231340FAD0424B71229A60C2
:1039D800C046404BDA6804231340FAD03D4B9B683D
:1039E800DAB23D4B1A700023FB605BE0FB1D1B78CD
:1039F800002B21D1C046A023DA05354BD2588023AD
:103A08005B021340F7D1C046324BDA6802231340F9
:103A1800FAD0304B3A1C0B32127830498A5C9A60E3
:103A2800C0462C4BDA6804231340FAD0294B9B6814
:103A3800DAB2294B1A7024E0FB1D1B78012B03D046
:103A4800FB1D1B78022B1CD1C046A023DA05204B96
:103A5800D25880235B021340F7D1C0461D4BDA6869
:103A680002231340FAD01B4B00229A60C046194B20
:103A7800DA6804231340FAD0164B9B68DAB2164B67
:103A88001A703B1C0B331B78134A1178134AD15414
:103A98003B1C0B331A783B1C0B3301321A70FB6842
:103AA8000133FB603B68012B04D93B685A1EFB6855
:103AB8009A429BD8A023DA0588239B018021090319
:103AC800D1500F2001F0A2FEBD4604B080BDC04613
:103AD8000421000000000440341A0010381A0010B5
:103AE80080B588B000AF786039600023BB617B681F
:103AF800002B08D13B685A1C3A6030221A703B6888
:103B080000221A7058E00023FB6123E07B68181C30
:103B18000A2101F0F9FE0B1CDBB23033DAB2391C92
:103B28000C31FB69CB181A70FB69002B08D1FB69B3
:103B38000133FB613A1C0C32FB69D3182E221A7030
:103B48007B68181C0A2101F09BFE031C7B60FB6943
:103B58000133FB617B68002B02D0FB69092BD5DDA3
:103B68003B1C0C339B78002B0BD13B1C0C333022B5
:103B78009A703B1C0C330022DA70FB690133FB613D
:103B88000CE00BE0FB69013BFB613B685A1C3A60A7
:103B9800391C0C31FA698A1812781A70FB69002BE3
:103BA800F0D1BB69002B04D03B685A1C3A602D2227
:103BB8001A703B6800221A70BD4608B080BDC04626
:103BC80090B589B000AF0A1CBB1D011C19807B1D74
:103BD8001A70414A414B101C00211A1C01F000FFC9
:103BE8003F4A3D4B0A20142100F08EF83D4A3A4BDB
:103BF8000A20322100F088F83B4A374B0A203C2142
:103C080000F082F87B1D1B78012B06D1374A324B16
:103C18000A20642100F078F826E07B1D1B78022B2F
:103C280006D1334A2C4B0A20642100F06DF81BE0C2
:103C38007B1D1B78032B06D12E4A274B0A206421B3
:103C480000F062F810E07B1D1B78042B06D12A4A8D
:103C5800214B0A20642100F057F805E0274A1E4B43
:103C68000A20642100F050F83A1C0C32244B101C36
:103C7800191C01F02BFFBB1D1C883B1C0C33181CA6
:103C880001F02CFF031C3A1C0C32D318201C191C01
:103C9800FFF726FF3A1C0C321A4B101C191C01F0B6
:103CA800EDFE3A1C0C320C4B0A20822100F02CF855
:103CB800FEF7CEFF002001F0E3F9002001F040FA02
:103CC800FEF7F0FF044B181CFFF764FAFFF782F9C0
:103CD800BD4609B090BDC04678010010B01600007E
:103CE800045B0000105B0000205B0000345B0000F8
:103CF8003C5B0000445B00004C5B0000545B000030
:103D0800605B0000685B000090B589B000AFBA60E6
:103D18007B603B1C0E33021C1A803B1C0C330A1CB4
:103D28001A803B1C0E331B8884225200D31A181C9D
:103D38000F2101F0F3FD031C1A1C3B1C12331A80DF
:103D48003B1C0C331B88B02B12D83B1C0C331B8834
:103D5800B022D31A152B0BDD3B1C0E331A88842393
:103D68005B009A4204D83B1C12331B88002B01D1FC
:103D78000123EDE03B1C1E3300221A80DAE0BB6809
:103D88001B78202B09D0BB681B78202B03D9BB6874
:103D98001B787E2B01D90223DAE0BB681B78213B14
:103DA8002C2253431A1C6C4BD318BB613B1C0E339B
:103DB8001B88D9B23B1C113307220A401A70BB6812
:103DC8001B78202B00D1A4E03B1C153300221A706D
:103DD8003B1C0E331B88DB0899B23B1C0C331B8839
:103DE8001A1C5201D3189AB23B1C16338A181A802F
:103DF80089E03B1C16331B887A68D3183A1C1632A4
:103E0800128879688A181278D1B2BA691278101CA7
:103E18003A1C11321278041C1441221CD2B24A40B6
:103E2800D2B2D2B21A703B1C16331B8801337A689F
:103E3800D2183B1C16331B8801337968CB181B78C2
:103E4800D9B2BB69581CB8611B78181C3B1C1133CC
:103E58001B780824E31A041C9C40231CDBB24B404B
:103E6800DBB2DBB213703B1C16331B8801337A6854
:103E7800D3183A1C16321288013279688A181278D7
:103E8800D1B2BA691278101C3A1C11321278041C8B
:103E98001441221CD2B24A40D2B2D2B21A703B1C90
:103EA80011331B78002B1DD03B1C16331B880233A3
:103EB8007A68D3183A1C16321288023279688A183E
:103EC8001278D1B2BA691278101C3A1C11321278E1
:103ED8000824A21A041C9440221CD2B24A40D2B22E
:103EE800D2B21A703B1C15331A783B1C15330132B9
:103EF8001A703B1C16333A1C1632128821321A806B
:103F0800BB690133BB613B1C15331B78152B00D8EB
:103F18006FE73B1C1E331A883B1C1E3301321A8084
:103F2800BB680133BB603B1C0E333A1C0E3212884F
:103F38000F321A803A1C1E323B1C123312881B881F
:103F48009A4204D2BB681B78002B00D017E70023E5
:103F5800181CBD4609B090BD6C5B000080B582B0EE
:103F680000AF021CFB1D1A70064BFA1D1278111CBB
:103F78001F220A400121081C9040021C1A60BD46FD
:103F880002B080BD00E100E080B582B000AF021C45
:103F9800FB1D1A70084AFB1D1B78191C1F230B40B8
:103FA8000121081C9840031C191CC0235B00D15038
:103FB800BD4602B080BDC04600E100E080B500AF5C
:103FC8001A4B1B685A1C194B1A60194B5A6A012361
:103FD800134028D0164B1A680123134005D0154BFF
:103FE8001B685A1C134B1A601DE0114BDA69012338
:103FF800134008D0104B1B685A1C0F4B1A600C4B0F
:104008000122DA610CE00A4B1A6A0123134007D037
:104018000A4B1B685A1C094B1A60054B01221A628D
:10402800034B01225A62C046BD4680BD9000001075
:1040380000C00440B8000010BC000010C000001010
:1040480080B500AF1A4B1B685A1C194B1A60194BE4
:104058005A6A0223134028D0164B1A6802231340C9
:1040680005D0154B1B685A1C134B1A601DE0114BE9
:10407800DA690223134008D0104B1B685A1C0F4BF7
:104088001A600C4B0222DA610CE00A4B1A6A02230E
:10409800134007D00A4B1B685A1C094B1A60054B82
:1040A80002221A62034B02225A62C046BD4680BDF4
:1040B8009400001000C00440C4000010C8000010A4
:1040C800CC00001080B500AF1A4B1B685A1C194B66
:1040D8001A60194B5A6A0423134028D0164B1A68E1
:1040E8000423134005D0154B1B685A1C134B1A6048
:1040F8001DE0114BDA690423134008D0104B1B68EC
:104108005A1C0F4B1A600C4B0422DA610CE00A4B64
:104118001A6A0423134007D00A4B1B685A1C094B20
:104128001A60054B04221A62034B04225A62C046E5
:10413800BD4680BD9800001000C00440D0000010AB
:10414800D4000010D800001080B500AF1A4B1B68CF
:104158005A1C194B1A60194B5A6A0823134028D065
:10416800164B1A680823134005D0154B1B685A1CB8
:10417800134B1A601DE0114BDA690823134008D06D
:10418800104B1B685A1C0F4B1A600C4B0822DA6143
:104198000CE00A4B1A6A0823134007D00A4B1B6825
:1041A8005A1C094B1A60054B08221A62034B082255
:1041B8005A62C046BD4680BD9C00001000C0044045
:1041C800DC000010E0000010E400001080B500AF33
:1041D8001A4B1B685A1C194B1A60194B5A6A102340
:1041E800134028D0164B1A681023134005D0154BDE
:1041F8001B685A1C134B1A601DE0114BDA69102317
:10420800134008D0104B1B685A1C0F4B1A600C4BFC
:104218001022DA610CE00A4B1A6A1023134007D007
:104228000A4B1B685A1C094B1A60054B10221A626C
:10423800034B10225A62C046BD4680BDA000001044
:1042480000C00440E8000010EC000010F00000106E
:1042580080B500AF1A4B1B685A1C194B1A60194BD2
:104268005A6A2023134028D0164B1A68202313407B
:1042780005D0154B1B685A1C134B1A601DE0114BD7
:10428800DA692023134008D0104B1B685A1C0F4BC7
:104298001A600C4B2022DA610CE00A4B1A6A2023C0
:1042A800134007D00A4B1B685A1C094B1A60054B70
:1042B80020221A62034B20225A62C046BD4680BDA6
:1042C800A400001000C00440F4000010F800001022
:1042D800FC00001080B500AF1A4B1B685A1C194B24
:1042E8001A60194B5A6A4023134028D0164B1A6893
:1042F8004023134005D0154B1B685A1C134B1A60FA
:104308001DE0114BDA694023134008D0104B1B689D
:104318005A1C0F4B1A600C4B4022DA610CE00A4B16
:104328001A6A4023134007D00A4B1B685A1C094BD2
:104338001A60054B40221A62034B40225A62C0465B
:10434800BD4680BDA800001000C004400001001058
:10435800040100100801001080B500AF1A4B1B685B
:104368005A1C194B1A60194B5A6A8023134028D0DB
:10437800164B1A688023134005D0154B1B685A1C2E
:10438800134B1A601DE0114BDA698023134008D0E3
:10439800104B1B685A1C0F4B1A600C4B8022DA61B9
:1043A8000CE00A4B1A6A8023134007D00A4B1B689B
:1043B8005A1C094B1A60054B80221A62034B802253
:1043C8005A62C046BD4680BDAC00001000C0044023
:1043D8000C010010100100101401001080B500AF8E
:1043E800114B1B685A1C104B1A60104B1A6801239A
:1043F800134015D00D4B1A681023134005D00C4BF1
:104408001B685A1C0A4B1A6004E00A4B1B685A1CAA
:10441800084B1A60054B054A126801210A431A60C5
:10442800C046BD4680BDC046B000001000C0054073
:10443800180100101C01001080B500AF114B1B685B
:104448005A1C104B1A60104B1A680123134015D0E0
:104458000D4B1A681023134005D00C4B1B685A1CCF
:104468000A4B1A6004E00A4B1B685A1C084B1A6076
:10447800054B054A126801210A431A60C046BD4629
:1044880080BDC046B40000100000064020010010A6
:104498002401001080B500AF094A09498023CB5890
:1044A800402119438023D150054A05498023CB5820
:1044B800C421490419438023D150C046BD4680BD5C
:1044C8000080044090B585B000AFF860B9607A60AC
:1044D8003B60FB68072B00D9A5E0FB689A007E4B80
:1044E800D3181B689F46BB68002B07D07B4A7B68A4
:1044F800191C1831BC235B00D15004E0774ABC2357
:104508005B007968D1500020FFF728FD8CE0BB687C
:10451800002B07D0714A7B68191C1831BE235B0039
:10452800D15004E06D4ABE235B007968D150012068
:10453800FFF714FD78E0BB68002B07D0674A7B685B
:10454800191C1831C0235B00D15004E0634AC02312
:104558005B007968D1500220FFF700FD64E0BB687A
:10456800002B07D05D4A7B68191C1831C2235B00F9
:10457800D15004E0594AC2235B007968D150032026
:10458800FFF7ECFC50E0BB68002B07D0534A7B6870
:10459800191C1831C4235B00D15004E04F4AC423CE
:1045A8005B007968D1500420FFF7D8FC3CE0BB6879
:1045B800002B07D0494A7B68191C1831C6235B00B9
:1045C800D15004E0454AC6235B007968D1500520E4
:1045D800FFF7C4FC28E0BB68002B07D03F4A7B6884
:1045E800191C1831C8235B00D15004E03B4AC8238A
:1045F8005B007968D1500620FFF7B0FC14E0BB6877
:10460800002B07D0354A7B68191C1831CA235B0078
:10461800D15004E0314ACA235B007968D1500720A1
:10462800FFF79CFC00E0C0463B68002B23D12C4BD5
:104638002B4A1268F9680120041C8C40211CC943CC
:104648000A401A603B6A002B0AD1254B244A11699B
:10465800FA680120041C9440221C0A431A6137E0BE
:104668001F4B1F4A5168FA680120041C9440221C01
:104678000A435A602DE01A4B194A1168FA6801205A
:10468800041C9440221C0A431A60154B144A5168B2
:10469800FA680120041C9440221C0A435A603B6AB1
:1046A800002B0BD10E4B0E4A1269F9680120041C2D
:1046B8008C40211CC9430A401A6109E0084B084A8A
:1046C8001169FA680120041C9440221C0A431A61EB
:1046D800C046BD4605B090BD946B00000080044004
:1046E80000C0044090B583B000AF78603960184BC3
:1046F8001B687A680121081C9040021C134018D1DD
:104708003B68002B0AD1124B114A51697A68012083
:10471800041C9440221C0A435A6114E00C4B0C4AB6
:1047280091687A680120041C9440221C0A439A600C
:104738000AE0074B064A91687A680120041C9440F5
:10474800221C0A439A60C046BD4603B090BDC046CD
:1047580000C0044090B583B000AF78603960184B52
:104768001B687A680121081C9040021C134018D16C
:104778003B68002B0AD1124B114A91697A680120D3
:10478800041C9440221C0A439A6114E00C4B0C4A06
:10479800D1687A680120041C9440221C0A43DA601C
:1047A8000AE0074B064AD1687A680120041C944045
:1047B800221C0A43DA60C046BD4603B090BDC0461D
:1047C80000C0044080B582B000AF7860074B5B6AD8
:1047D8007A680121081C9040021C134001D0012373
:1047E80000E00023181CBD4602B080BD00C0044094
:1047F80080B582B000AF7860094B1B687A680121E8
:10480800081C9040021C134006D1054B7A68012110
:10481800081C9040021C5A62C046BD4602B080BDCA
:1048280000C0044080B584B000AFF860B9607A6019
:104838003B60FB68002B02D0012B34D067E03B685B
:10484800002B06D1344B344A126804218A431A607B
:1048580005E0314B304A126804210A431A602E4B96
:104868002D4A11687A6852000A431A602A4BBA69BD
:1048780012681A62284BBA6952685A62264BBA689B
:1048880012681A64244BBA6852685A64224B224A46
:10489800126801210A431A600820FFF775FB0820F7
:1048A800FFF75CFB33E03B68002B06D11B4B1B4A30
:1048B800126804218A431A6005E0184B174A1268E7
:1048C80004210A431A60154B144A11687A68520089
:1048D8000A431A60114BBA6912681A620F4BBA6917
:1048E80052685A620D4BBA6812681A640B4BBA6860
:1048F80052685A64094B094A126801210A431A602E
:104908000920FFF741FB0920FFF728FBC046C046F6
:10491800BD4604B080BDC04600C00540000006404A
:1049280080B584B000AF786039600023FB603B68D5
:104938001F2B11D8A023DB057A68842000011218E8
:104948009200D3583A680121081C9040021C134079
:104958000ED00123FB600BE03B68FF2B08D1A0239E
:10496800DB057A688421090152189200D358FB604C
:10497800FB68181CBD4604B080BDC04680B584B035
:1049880000AFF860B9607A607B68002B0ED0A02376
:10499800DB05BA680121081C9040021C111CFA684A
:1049A8008820000112189200D1500DE0A023DB05E9
:1049B800BA680121081C9040021C111CFA688A2060
:1049C800000112189200D150C046BD4604B080BD07
:1049D80090B585B000AFF860B9607A607B68002B4D
:1049E80016D0A023DB05A022D205F968802000019B
:1049F800091889008958BA680120041C9440221CAF
:104A08001143FA688020000112189200D15016E074
:104A1800A023DB05A022D205F96880242401091906
:104A280089008A58B9680120041C8C40211CC9439C
:104A38001140FA688020000112189200D150C04637
:104A4800BD4605B090BDC04680B582B000AF021C1F
:104A5800FB1D1A70064BFA1D1278111C1F220A4002
:104A68000121081C9040021C1A60BD4602B080BD9E
:104A780000E100E080B582B000AF764B00221A60FA
:104A88008023DB055A68FB1D1A70FB1D1B78083B49
:104A9800502B00D9D1E09A006F4BD3181B689F4662
:104AA8006E4B00221A608023DB056C4A1268501C8A
:104AB8006A4908606A498A5CD2B29A608023DB0539
:104AC80028229A61C1E0674B00221A608023DB0527
:104AD800624A1268501C6149086061498A5CD2B216
:104AE8009A608023DB0528229A61AEE05E4B1B6842
:104AF800012B07D18023DB0510221A605B4B0722AC
:104B08001A600AE08023DB05544A1268501C534996
:104B1800086053498A5CD2B29A608023DB05082278
:104B28009A6192E04D4B1A684F4B1B689A420BD220
:104B38008023DB05494A1268501C484908604849E7
:104B48008A5CD2B29A600FE0494B1B68002B04D0F4
:104B58008023DB0520221A6006E08023DB05102273
:104B68001A60424B0C221A608023DB0508229A61E6
:104B78006BE08023DB0510221A603C4B09221A6087
:104B88008023DB0508229A615FE0364B1B685A1CBC
:104B9800374B1B689A4204D28023DB0504221A6033
:104BA80003E08023DB0504229A618023DB050822C9
:104BB8009A614AE02B4B1B68591C2A4A11608022D3
:104BC800D2059268D1B22B4AD154264B1B685A1C85
:104BD800274B1B689A4204D28023DB0504221A6003
:104BE80003E08023DB0504229A618023DB05082289
:104BF8009A612AE01B4B1B68591C1A4A11608022D3
:104C0800D2059268D1B21B4AD154184B0C221A60B3
:104C18008023DB0510221A608023DB0508229A61B5
:104C280013E08023DB0510221A60104B08221A605B
:104C38008023DB0508229A6107E00C4B0A221A60E0
:104C48008023DB0508229A61C046C046BD4602B0F3
:104C580080BDC04630010010B46B00003C0100105C
:104C68003019001038010010301A00102801001007
:104C7800281800102C18001080B582B000AF00234F
:104C88007B6000233B608023DB0520221A600B4BEE
:104C98001B68012B02D101233B600AE07A68084BAC
:104CA8009A4202D900233B6003E07B6801337B60B2
:104CB800EDE73B68181CBD4602B080BD2801001016
:104CC800FEFFFF0080B500AF8023DB0510221A60CD
:104CD8008023DB0508229A61C0468023DB051A6819
:104CE80010231340F9D10123181CBD4680BDC046CE
:104CF80080B582B000AF7860234B234A5268022106
:104D08000A435A60204A20498023CB58202119435E
:104D18008023D1501D4B1D4A12693F218A431A61D5
:104D28001A4B1A4A126901210A431A61174B174A8A
:104D380052693F218A435A61144B144A526901212E
:104D48000A435A618023DB056C229A618023DB05C4
:104D5800C02252005A618023DB05C02252001A612A
:104D68007B68022B03D18023DB05A022DA600F20A9
:104D7800FFF76AFE8023DB0540221A600123181C16
:104D8800BD4602B080BDC0460080044000400440DB
:104D980080B500AF144B00221A60144B00221A6031
:104DA8008023DB0520221A60114B06221A600DE0D1
:104DB800104B1A68104B9A4203D90D4B0B221A60FC
:104DC80008E00C4B1B685A1C0A4B1A60084B1B68FE
:104DD800062BEDD08023DB0520229A61044B1B684B
:104DE800181CBD4680BDC046380100103C010010AB
:104DF8002801001030010010FEFFFF0080B582B0CE
:104E080000AF254AA8235B001021D150BB1D00220A
:104E18001A8004E0BB1D1A88BB1D01321A80BB1D15
:104E28001A881E4B9A42F5D900F08AFBFDF720FB41
:104E38000120FFF75DFFA023DA05194B8021090542
:104E4800D150FDF7EFFBA023DA05164B80210905A9
:104E5800D150A023DA05124B80210905D150124BFD
:104E6800181C00F0D3FC114B181C00F0CFFCFDF708
:104E7800EFFE002000F004F9002000F061F90C4B6F
:104E8800181CFDF78FFCFDF70DFF094B181CFEF7EA
:104E980081F9FEF79FF8FEE7008004404FC3000049
:104EA80084220000042200008096980000350C003F
:104EB8007801001080B582B000AF021CFB1D1A708B
:104EC800064BFA1D1278111C1F220A400121081CEA
:104ED8009040021C1A60BD4602B080BD00E100E0AF
:104EE80080B582B000AF144BDB697B607A68012320
:104EF800134007D0114B1B685A1C104B1A600E4BFD
:104F080001221A627A680223134007D00C4B1B68EF
:104F18005A1C0B4B1A60084B02221A627A68042347
:104F2800134004D0074B1B685A1C064B1A60C04636
:104F3800BD4602B080BDC0460000044044010010D8
:104F4800480100104001001080B582B000AF144B3A
:104F5800DB697B607A680123134007D0114B1B681B
:104F68005A1C104B1A600E4B01221A627A680223EF
:104F7800134007D00C4B1B685A1C0B4B1A60084B8C
:104F880002221A627A680423134004D0074B1B6874
:104F98005A1C064B1A60C046BD4602B080BDC046CA
:104FA8000080054050010010540100104C01001011
:104FB80080B582B000AF021CFB1D1A70FB1D1B7868
:104FC800002B2FD1274B00225A60274B00221A6250
:104FD800A023DA058A239B0180214900D150224B66
:104FE80000225A62A023DA058A239B0180218900C6
:104FF800D1501D4AD4230021D150A023DA051B4BE0
:1050080080218905D1501A4A19498023C958194B5A
:1050180019408023D150164B154A526801218A4302
:105028005A601AE0144B00225A600F4B00225A654E
:105038000D4B00229A650C4A9C230021D1500C4A42
:105048000B498023C9580D4B19408023D150084B78
:10505800074A526804218A435A60C046BD4602B0D6
:1050680080BDC04600000440004004408422000087
:1050780000800440FFF7FFFF00800540FFFFFBFFB3
:1050880080B582B000AF021CFB1D1A70FB1D1B7897
:10509800002B2FD1284B284A526801210A435A6015
:1050A800254A25498023CB588021090119438023AB
:1050B800D150214A94230421D150204B1F4A126A0F
:1050C80007218A431A621D4B1C4A126A01210A43AE
:1050D8001A621A4B194A526A07218A435A62174BB5
:1050E800164A526A01210A435A62144AD4230121FA
:1050F800D1501CE0104B104A526804210A435A60F0
:105108000D4A0D498023CB588021C90219438023B9
:10511800D150094A9C230221D150084B02225A65DA
:10512800064B83229A65054A9C230321D150C04629
:10513800BD4602B080BDC046008004400040044027
:1051480080B584B000AF021CFB1D1A703B1C0E33E7
:105158003A1C0E3212781A70FB1D1B78002B25D1D1
:10516800264B07221A60254B02221A613B1C0F337B
:1051780000221A700BE0214B9A683B1C0E331A7000
:105188003B1C0F331A783B1C0F3301321A703B1C3F
:105198000F331B78072BEED91420FFF78BFE174B24
:1051A80002225A60154B03225A6124E0144B154A17
:1051B8001A60134B02221A613B1C0F3300221A702B
:1051C8000BE00F4B9A683B1C0E331A703B1C0F33D5
:1051D8001A783B1C0F3301321A703B1C0F331B78B3
:1051E800072BEED90E20FFF765FE054B02225A6009
:1051F800034B03225A61BD4604B080BD0000044041
:10520800008005400707000080B586B000AFB96090
:105218007A603B1C0F33021C1A703B1C13333A1C78
:10522800133212781A7000237B613CE03B1C0F3369
:105238001B78002B1AD1C0461F4BDA681223134083
:10524800022BF9D11C4BBA6812789A60BB680133FB
:10525800BB60C046184BDA6814231340042BF9D1FD
:10526800154B9A683B1C13331A7019E0C046134B50
:10527800DA6812231340022BF9D1104BBA6812785E
:105288009A60BB680133BB60C0460C4BDA681423D4
:105298001340042BF9D1094B9A683B1C13331A703D
:1052A8007B6901337B617A697B689A42BED3C046C9
:1052B800BD4606B080BDC0460000044000800540E1
:1052C80080B586B000AFB9607A603B1C0F33021C12
:1052D8001A7000237B612CE03B1C0F331B78002BDA
:1052E80012D1184BFF229A60C046164BDA68142375
:1052F8001340042BF9D1134B9B68DAB2BB681A70C0
:10530800BB680133BB6011E00F4BFF229A60C046B7
:105318000D4BDA6814231340042BF9D10A4B9B6810
:10532800DAB2BB681A70BB680133BB607B690133B2
:105338007B617A697B689A42CED3C046BD4606B087
:1053480080BDC046000004400080054080B500AF25
:1053580062B6BD4680BDC04680B500AF72B6BD46D8
:1053680080BDC04680B500AFC046BD4680BDC046C2
:1053780080B582B000AF00237B605E4B5B6A5A0940
:105388000F2313400F2B34D89A005B4BD3181B689C
:105398009F4600237B602CE0584B7B6029E0584BEC
:1053A8007B6026E0574B7B6023E0574B7B6020E017
:1053B800564B7B601DE0564B7B601AE0554B7B607B
:1053C80017E0554B7B6014E0544B7B6011E0544B65
:1053D8007B600EE0534B7B600BE0534B7B6008E037
:1053E800524B7B6005E0524B7B6002E0514B7B6087
:1053F800C046404B5A6A1F2313405B00023378684B
:10540800191C00F03DFA031C7B603A4B1A6F03230A
:105418001340012B09D004D3022B1DD0032B1FD01E
:1054280058E0454B454A1A6054E0324B1A6C032346
:105438001340012B07D002D3032B48D807E03E4B7B
:105448003E4A1A6007E03C4B3C4A1A6003E03A4B7C
:1054580000221A60C0463AE0374B7A681A6039E091
:10546800244B1A6C03231340012B17D002D3032BB0
:105478002FD827E01F4B9A68C0235B00134003D046
:105488002D4B2E4A1A6021E01A4B9A681F231340AD
:1054980001332A4A5A43284B1A6017E0154B9A6879
:1054A800C0235B00134003D0234B244A1A600DE04D
:1054B800104B9A681F2313400133204A5A431E4B4E
:1054C8001A6003E01C4B00221A60C04601E0C04687
:1054D80000E0C046184B1A68064B9B6F101C191C3D
:1054E80000F0CEF9031C1A1C134B1A60BD4602B01B
:1054F80080BDC04600800440F86C000020A1070071
:1055080000350C00E0C81000C05C1500006A1800E7
:1055180040771B0080841E00C0912100009F24005A
:1055280040AC2700E032290020402C00604D2F00BD
:1055380000D4300040E1330080000010001BB700A9
:1055480080B584B000AF3F4A3E498E239B00CB58BC
:105558002021181C8843011C8E239B00D150394BF5
:1055680000221A6200237B6004E0FFF7FBFE7B68E1
:1055780001337B607B68C72BF7D9324B01221A6451
:10558800304B01225A642F4B00225A642D4B0122C2
:105598005A64C0462B4B5A6C01231340FAD0294B4E
:1055A80000221A67274B01225A67264B00225A67A6
:1055B800244B01225A67C046224B5A6F01231340DD
:1055C800FAD0204B01229A671E4A1E498E239B005F
:1055D800CB588021C90019438E239B00D150194A0A
:1055E80018498E239B00CB588021490019438E23EC
:1055F8009B00D150134A13498023CB58802149027C
:1056080019438023D150FFF7A7FE0023FB600E4B00
:10561800BB6000237B600AE0BB681A1DBA60FA68A9
:10562800111DF96012681A607B6801337B607B6822
:105638001F2BF1D9034B01221A60FFF787FEBD46E5
:1056480004B080BD008004400000001080B500AFA9
:10565800054B1A680123134002D0034B01221A603C
:10566800C046BD4680BDC0460040014080B500AF81
:10567800054B1A680123134002D0034B01221A601C
:10568800C046BD4680BDC0460080014080B582B09E
:1056980000AF021CFB1D1A70FB1D1B78002B03D1E9
:1056A800054B01225A6002E0044B01225A60C046B1
:1056B800BD4602B080BDC04600C0004000000140A9
:1056C80080B582B000AF021CFB1D1A70FB1D1B7851
:1056D800002B0DD10F4B00225A6001200D21012211
:1056E800FFF776F901200D210022FFF747F90CE0BA
:1056F800094B00225A6001200D210122FFF768F9A9
:1057080001200D210022FFF739F9C046BD4602B03D
:1057180080BDC04600C000400000014080B584B094
:1057280000AF021CFB1D1A70FB1D1B78002B0AD151
:105738000B4B5B68FB60FB6802221343FB60084B62
:10574800FA685A6009E0074B5B68FB60FB68022255
:105758001343FB60034BFA685A60BD4604B080BD32
:1057680000C000400000014080B582B000AF021CBC
:10577800FB1D1A70FB1D1B78002B1CD11F4A94239C
:105788000221D1501E4A1E498023CB58802119433B
:105798008023D1501B4B0022DA601A4B01225A6732
:1057A800184B28229A61174B50225A62154B8022B7
:1057B800D2005A611FE0FB1D1B78012B1BD10F4B38
:1057C80083229A630E4A0E498023CB5880214900D0
:1057D80019438023D1500C4B0022DA600A4B022275
:1057E8005A67094B2822DA61074B50225A62064B46
:1057F8008022D2005A61BD4602B080BD00400440FC
:105808000080044000C000400000014080B582B024
:1058180000AF7860174A17498023CB588021890048
:1058280019438023D150144B02225A60124B002294
:10583800DA60114A79680B1C5B005B189B00936166
:105848000D4BFF221A600C4B04225A610A4B0122AD
:105858005A60C046084B5A6801231340FAD1054ADA
:1058680004498023C958054B19408023D150BD46AF
:1058780002B080BD0080044000400140FFFDFFFFF2
:10588800002934D00123002210B488422CD30124EB
:105898002407A14204D2814202D209011B01F8E780
:1058A800E400A14204D2814202D249005B00F8E739
:1058B800884201D3401A1A434C08A04202D3001B65
:1058C8005C0822438C08A04202D3001B9C08224398
:1058D800CC08A04202D3001BDC082243002803D0D6
:1058E8001B0901D00909E3E7101C10BC7047002808
:1058F80001D00020C04307B4024802A1401802901A
:1059080003BDC046D90000000029F0D003B5FFF759
:10591800B9FF0EBC4243891A1847C046002941D036
:1059280010B4041C4C40A44601230022002900D5D1
:105938004942002800D5404288422CD3012424073C
:10594800A14204D2814202D209011B01F8E7E40016
:10595800A14204D2814202D249005B00F8E78842A2
:1059680001D3401A1A434C08A04202D3001B5C081A
:1059780022438C08A04202D3001B9C082243CC0877
:10598800A04202D3001BDC082243002803D01B09D5
:1059980001D00909E3E7101C6446002C00D54042F9
:1059A80010BC7047002806D003DB0020C043400825
:1059B80001E08020000607B4024802A140180290C6
:1059C80003BDC046190000000029EBD003B5FFF75E
:1059D800A7FF0EBC4243891A1847C0467047C04605
:1059E800F0B5830746D0541E002A42D0CEB2031C1D
:1059F800032503E0621E002C3BD0141C01335A1E01
:105A080016702B42F6D1032C2BD9FF250D402A0204
:105A180015432A0415430F2C15D9271C103F3F099D
:105A28001E1C3A011036B6181A1C15605560956090
:105A3800D5601032B242F8D101373F010F22DB198D
:105A48001440032C0DD9271FBF08BA001E1DB61815
:105A58001A1C20C2B242FCD10137BF000322DB1955
:105A68001440002C05D01C19C9B219700133A34287
:105A7800FBD1F0BD141C031CC5E7C04670B5061C5D
:105A8800B30717D133680F480F4D1A189A43301CC3
:105A98002A420FD1043002680A4BD41894432C428E
:105AA80008D104300268074BD41894432C42F1D033
:105AB80000E001300278002AFBD100F007F8301C22
:105AC80070BDC046FFFEFEFE80808080031C0A7801
:105AD80001311A700133002AF9D170470023C25CE2
:105AE8000133002AFBD1581E7047C0460008040C39
:105AF800020A060E0109050D030B070F20202020BE
:105B08002053494C494341002020202041726368BA
:105B180069746563680000005F5F5F5F5F5F5F5F78
:105B28005F5F5F5F5F5F5F5F000000004B65793A12
:105B3800205331004B65793A205332004B65793A4E
:105B4800205333004B65793A205334004B65793A3A
:105B5800204E6F6E6500000054656D703A2000009D
:105B680043000000000000000700070007000700CE
:105B780007000700070007000700070000000000F3
:105B880007000700070000000000000000000000F8
:105B98000000000038E038E038E038E038E038E06D
:105BA80000000000000000000000000000000000ED
:105BB80000000000000000000000000000000000DD
:105BC800067006700E600E607FF87FF81CC018C063
:105BD80019C0FFF0FFF031803380330073000000FC
:105BE80000000000000000000000020002000F801A
:105BF8001FC03AC03A003A003E001F800FC003E0C1
:105C080002E022E032E03FC01F80020002000200F2
:105C1800000000000000000038007C00C600C6003C
:105C2800C6007C2039C00E0039C043E0063006307B
:105C3800063003E001C00000000000000000000082
:105C48000000000007801FC01C401C001E000E0042
:105C58001F003F18739871D871F870F038F03FF052
:105C68000FB8000000000000000000000000000065
:105C780007000700070007000700070000000000F2
:105C8800000000000000000000000000000000000C
:105C98000000000000000000000001C00380038035
:105CA8000700070007000E000E000E000E000E0091
:105CB8000E000E000700070007000380038001C0E4
:105CC8000000000000001C000E000E000700070086
:105CD8000700038003800380038003800380038020
:105CE8000700070007000E000E001C00000000005F
:105CF800000000000600060066607FE01F801F802D
:105D08007FE066600600060000000000000000005A
:105D1800000000000000000000000000000000007B
:105D28000000000000000000060006000600060053
:105D38007FE07FE006000600060006000000000085
:105D4800000000000000000000000000000000004B
:105D5800000000000000000000000000000000003B
:105D68000000070007000700070006000E000C00EF
:105D7800000000000000000000000000000000001B
:105D88000000000000001F801F801F80000000002E
:105D980000000000000000000000000000000000FB
:105DA80000000000000000000000000000000000EB
:105DB80000000000000000000000070007000700C6
:105DC80007000000000000000000000000000000C4
:105DD800006000C000C001800180030003000600CD
:105DE800060006000C000C001800180030003000F7
:105DF8006000000000000000000000000F001F808D
:105E080039C030E070E070E076E076E076E070E08F
:105E180070E030E039C01F800F0000000000000073
:105E280000000000000000000F003F0037000700DE
:105E38000700070007000700070007000700070022
:105E480007003FE03FE00000000000000000000005
:105E5800000000003F007FC061E040E000E000E09B
:105E680001C003C007800F001E003C0038007FE01F
:105E78007FE00000000000000000000000000000BB
:105E88003F807FC060E040E000E00F800F8001C0ED
:105E980000E000E000E040E061E07FC03F0000007B
:105EA80000000000000000000000000003800780E0
:105EB80007800F801F801B803B80338063807FE0DA
:105EC8007FE003800380038003800000000000005F
:105ED80000000000000000003FC03FC0380038004C
:105EE80038003F803FC021C000E000E000E000E053
:105EF80061C07FC03F0000000000000000000000FB
:105F0800000000000F801FC0384038007000778004
:105F18007FC079E070E070E070E070E039C03FC0A9
:105F28000F800000000000000000000000000000DA
:105F38007FE07FE000E001C001C0038003800780AC
:105F480007000F000E000E001C001C0038000000A7
:105F58000000000000000000000000001F803FC09B
:105F680079E070E070E039C01F801F8039C070E0B0
:105F780070E070E079E03FC01F8000000000000082
:105F880000000000000000001F003FC079C070E062
:105F980070E070E070E079E03FE01EE000E001C0F2
:105FA80021C03F801F00000000000000000000002A
:105FB80000000000000000000000000007000700CB
:105FC80007000700000000000000070007000700A6
:105FD80007000000000000000000000000000000B2
:105FE800000000000000000007000700070007008D
:105FF8000000000000000700070007000700060077
:106008000E000C000000000000000000000000006E
:106018000000001000F003F01F807E0070007E007A
:106028001F8003F000F000100000000000000000D6
:106038000000000000000000000000000000000058
:10604800000000007FF07FF0000000007FF07FF08C
:106058000000000000000000000000000000000038
:1060680000000000000000000000400078007E00F2
:106078000FC003F0007003F00FC07E0078004000EE
:106088000000000000000000000000000000000008
:106098000FC01FE01070007000F001E003C0038023
:1060A80007000700070000000700070007000000BE
:1060B80000000000000000000000000000000FC009
:1060C8001FE03870703063B0E7F0CE70CC30CC3061
:1060D800CC30CC30CE70E7F063F0700038201FF081
:1060E80007E00000000000000F000F001F801F8065
:1060F8001F80198039C039C039C03FC07FE070E0C7
:1061080070E0E070E0700000000000000000000097
:10611800000000007F807FC070E070E070E070E0F9
:106128007FC07FC070E070707070707070F07FE03A
:106138007FC0000000000000000000000000000018
:1061480003E00FF01E301C0038003800380038001B
:106158003800380038001C001E300FF003E0000043
:106168000000000000000000000000007F007FC069
:1061780071E070E070707070707070707070707036
:10618800707070E071E07FC07F00000000000000C8
:1061980000000000000000003FF03FF03800380029
:1061A800380038003FE03FE0380038003800380059
:1061B80038003FF03FF00000000000000000000041
:1061C800000000003FF03FF0380038003800380089
:1061D8003FE03FE038003800380038003800380029
:1061E800380000000000000000000000000000006F
:1061F80007C01FE03C60380070007000700071F04C
:1062080071F07070707038703C701FF007E000001B
:1062180000000000000000000000000070E070E0D6
:1062280070E070E070E070E07FE07FE070E070E0C8
:1062380070E070E070E070E070E0000000000000C6
:1062480000000000000000003FE03FE007000700FA
:1062580007000700070007000700070007000700FE
:1062680007003FE03FE000000000000000000000E1
:10627800000000000FE00FE000E000E000E000E0B8
:1062880000E000E000E000E000E040E061E07FC006
:106298003F80000000000000000000000000000037
:1062A80070F070E071C0738077807F007F007F009E
:1062B8007F80738071C071C070E070F070700000F2
:1062C8000000000000000000000000003800380056
:1062D80038003800380038003800380038003800F6
:1062E8003800380038003FE03FE0000000000000C0
:1062F800000000000000000078F078F07DF07DF0EC
:106308007DF07DF077707770777070707070707056
:1063180070707070707000000000000000000000D5
:106328000000000078E078E078E07CE07CE07CE049
:1063380076E076E076E073E073E073E071E071E0B8
:1063480071E00000000000000000000000000000F4
:106358000F801FC038E038E0707070707070707017
:1063680070707070707038E038E01FC00F800000E7
:106378000000000000000000000000003F803FE037
:1063880038F0387038703870387038F03FE03F8037
:1063980038003800380038003800000000000000DD
:1063A80000000000000000000F801FC038E038E047
:1063B800707070707070707070707070707038F08D
:1063C80038E01FE00FC001E000E0004000000000DE
:1063D800000000007F807FC071E070E070E070E036
:1063E80071E07FC07F8073C071C071E070E070E0C1
:1063F80070F0000000000000000000000000000035
:106408001F803FC078C0704070007C003F001FC0F4
:1064180007E001E000E040E061E07FC03F8000006D
:106428000000000000000000000000007FF07FF086
:10643800070007000700070007000700070007001C
:106448000700070007000700070000000000000021
:10645800000000000000000070E070E070E070E0F4
:1064680070E070E070E070E070E070E070E070E0A4
:1064780079E03FC01F80000000000000000000001D
:10648800000000007070707038E038E038E038E0E4
:1064980018C01DC01DC01DC01DC00D800F800F80FD
:1064A8000F80000000000000000000000000000055
:1064B800E038E038E038E03867306730673065B09A
:1064C8007DB07DB07DF07DF038E038E038E0000048
:1064D800000000000000000000000000E07070E014
:1064E80079E039C01F801F800F000F000F001F8048
:1064F8001F8039C079E070E0E07000000000000003
:106508000000000000000000F078707078F038E0BB
:106518003DE01DC00F800F8007000700070007003F
:10652800070007000700000000000000000000004E
:10653800000000007FF07FF000F000E001E003C001
:10654800078007000E001E003C00380070007FF036
:106558007FF00000000000000000000000000F8035
:106568000F800E000E000E000E000E000E000E0032
:106578000E000E000E000E000E000E000E000E00A3
:106588000F800F8000000000000000006000300055
:106598003000180018000C000C000E000600070060
:1065A800030003000180018000C000C000600000FB
:1065B8000000000000001F801F800380038003800C
:1065C80003800380038003800380038003800380AB
:1065D80003800380038003801F801F800000000069
:1065E8000000000007000F800F801DC038E07070A9
:1065F8000000000000000000000000000000000093
:106608000000000000000000000000000000000082
:106618000000000000000000000000000000000072
:106628000000000000000000000000000000000062
:1066380000000000FFF8FFF838001C000E000700FB
:106648000000000000000000000000000000000042
:106658000000000000000000000000000000000032
:106668000000000000000000000000000000000022
:106678001FC03FE0207000701FF03FF0787070700E
:1066880070F03FF01F7000000000000000000000E4
:1066980000007000700070007000700077C07FE02C
:1066A80078E07070707070707070707078E07FE073
:1066B80077C000000000000000000000000000009B
:1066C80000000000000000000FC01FE0382070002C
:1066D800700070007000700038201FE00FC00000CC
:1066E8000000000000000000000000700070007052
:1066F800007000701F703FF038F07070707070702C
:106708007070707038F03FF01F70000000000000DB
:106718000000000000000000000000000000000071
:106728000F803FE038E070707FF07FF070007000FD
:1067380038101FF00FE0000000000000000000000B
:10674800000003F007F00700070007003FF03FF0E4
:1067580007000700070007000700070007000700F9
:10676800070000000000000000000000000000001A
:1067780000000000000000000F703FF038F070705B
:10678800707070707070707038F03FF01F7000702B
:1067980020F03FE01FC00000000070007000700093
:1067A8007000700077807FC078E070E070E070E083
:1067B80070E070E070E070E070E000000000000041
:1067C80000000000070007000700070000000000A5
:1067D8003F003F0007000700070007000700070009
:1067E80007007FF07FF000000000000000000000BC
:1067F8000380038003800380000000001F801F8047
:106808000380038003800380038003800380038068
:106818000380038003803F003E00000000007000FA
:10682800700070007000700071E073C077807F00A6
:106838007E007F00738073C071C070E070F000004C
:10684800000000000000000000007E007E000E0036
:106858000E000E000E000E000E000E000E000E00C0
:106868000E000E000E0007E003E00000000000002C
:106878000000000000000000000000000000000010
:10688800DDE0FFF0C630C630C630C630C630C63090
:10689800C630C630C630000000000000000000000E
:1068A80000000000000000000000000077807FC0AA
:1068B80078E070E070E070E070E070E070E070E048
:1068C80070E0000000000000000000000000000070
:1068D80000000000000000000F803FE038E070700A
:1068E800707070707070707038E03FE00F8000005A
:1068F8000000000000000000000000000000000090
:106908000000000077C07FE078E0707070707070F1
:106918007070707078E07FE077C070007000700071
:1069280070000000000000000000000000000000EF
:106938001F703FF038F07070707070707070707009
:1069480038F03FF01F700070007000700070000099
:106958000000000000000000000000001DE01FF023
:106968001E101C001C001C001C001C001C001C002D
:106978001C000000000000000000000000000000F3
:1069880000000000000000001F803FC07040700041
:106998007F003FC007E000E040E07FC03F8000008C
:1069A80000000000000000000000000000000E00D1
:1069B8000E000E007FE07FE00E000E000E000E00BD
:1069C8000E000E000E000FE007E0000000000000BF
:1069D80000000000000000000000000000000000AF
:1069E80070E070E070E070E070E070E070E070E01F
:1069F80071E03FE01EE00000000000000000000021
:106A080000000000000000000000000070707070BE
:106A180038E038E038E01DC01DC01DC00F800F8071
:106A28000F800000000000000000000000000000CF
:106A38000000000000000000E038E038E03867306F
:106A4800673065307DF07DF03DE038E038E00000EB
:106A5800000000000000000000000000000000002E
:106A68000000000078F038E01DC00F800F8007009C
:106A78000F801DC01DC038E078F000000000000045
:106A880000000000000000000000000000000000FE
:106A9800707038E038E038E01DC01DC00FC00F80AE
:106AA80007800780070007000E003E003C0000003A
:106AB8000000000000000000000000007FE07FE010
:106AC80001E003C007800F001E003C0078007FE053
:106AD8007FE000000000000000000000000003E06C
:106AE80007E00700070007000700070007000F007E
:106AF8003E003E000F0007000700070007000700E0
:106B080007E003E0000000000000060006000600A1
:106B1800060006000600060006000600060006003D
:106B2800060006000600060006000600060006002D
:106B38000600060000003E003F00070007000700AF
:106B4800070007000700078003E003E0078007004D
:106B580007000700070007003F003E000000000094
:106B6800000000000000000000000000000000001D
:106B780000003E107FF041E000000000000000002F
:106B8800000000000000000000000000EE440000CB
:106B9800164500003E450000664500008E45000091
:106BA800B6450000DE45000006460000A84A000081
:106BB800424C0000424C0000424C0000424C000095
:106BC800424C0000424C0000424C0000CE4A0000FB
:106BD800424C0000424C0000424C0000424C000075
:106BE800424C0000424C0000424C0000F44A0000B5
:106BF800424C0000424C0000424C0000424C000055
:106C0800424C0000424C0000424C00002A4C00005C
:106C1800424C0000424C0000424C0000424C000034
:106C2800424C0000424C0000424C00002C4B00003B
:106C3800424C0000424C0000424C0000424C000014
:106C4800424C0000424C0000424C00007A4B0000CD
:106C5800424C0000424C0000424C0000424C0000F4
:106C6800424C0000424C0000424C0000424C0000E4
:106C7800424C0000424C0000424C0000424C0000D4
:106C8800424C0000424C0000424C0000924B000075
:106C9800424C0000424C0000424C0000424C0000B4
:106CA800424C0000424C0000424C00002A4C0000BC
:106CB800424C0000424C0000424C0000424C000094
:106CC800424C0000424C0000424C0000BC4B00000B
:106CD800424C0000424C0000424C0000424C000074
:106CE800424C0000424C0000424C0000FC4B0000AB
:106CF8009A530000A0530000A6530000AC530000B4
:106D0800B2530000B8530000BE530000C453000043
:106D1800CA530000D0530000D6530000DC530000D3
:106D2800E2530000E8530000EE530000F453000063
:046D3800001BB70085
:04000003000021795F
:00000001FF